:020000040000fa
:080000000002040000000000f2
:020000040000fa
:040008008605000069
:020000040000fa
:04000c0004050000e7
:020000040000fa
:0400100046050000a1
:020000040000fa
:0400140024050000bf
:020000040000fa
:040018006605000079
:020000040000fa
:04001c008605000055
:020000040000fa
:040020008605000051
:020000040000fa
:04002400860500004d
:020000040000fa
:040028008605000049
:020000040000fa
:04002c008605000045
:020000040000fa
:040030008605000041
:020000040000fa
:04003400cc020000fa
:020000040000fa
:040038008605000039
:020000040000fa
:04003c008605000035
:020000040000fa
:040040008605000031
:020000040000fa
:04004400860500002d
:020000040000fa
:040048008605000029
:020000040000fa
:04004c008605000025
:020000040000fa
:040050008605000021
:020000040000fa
:04005400860500001d
:020000040000fa
:040058008605000019
:020000040000fa
:04005c008605000015
:020000040000fa
:040060008605000011
:020000040000fa
:04006400860500000d
:020000040000fa
:040068008605000009
:020000040000fa
:04006c008605000005
:020000040000fa
:040070008605000001
:020000040000fa
:0400740086050000fd
:020000040000fa
:0400780086050000f9
:020000040000fa
:04007c0086050000f5
:020000040000fa
:0400800086050000f1
:020000040000fa
:0400840086050000ed
:020000040000fa
:0400880086050000e9
:020000040000fa
:04008c0086050000e5
:020000040000fa
:0400900086050000e1
:020000040000fa
:0400940086050000dd
:020000040000fa
:0400980086050000d9
:020000040000fa
:04009c0086050000d5
:020000040000fa
:0400a00086050000d1
:020000040000fa
:0400a40086050000cd
:020000040000fa
:0400a80086050000c9
:020000040000fa
:0400ac0086050000c5
:020000040000fa
:0400b00086050000c1
:020000040000fa
:0400b40086050000bd
:020000040000fa
:0400b80086050000b9
:020000040000fa
:0400bc0086050000b5
:020000040000fa
:0400c00086050000b1
:020000040000fa
:0400c40086050000ad
:020000040000fa
:0400c80086050000a9
:020000040000fa
:0400cc0086050000a5
:020000040000fa
:0400d00086050000a1
:020000040000fa
:0400d400860500009d
:020000040000fa
:0400d8008605000099
:020000040000fa
:0400dc008605000095
:020000040000fa
:0400e0008605000091
:020000040000fa
:0400e400860500008d
:020000040000fa
:0400e8008605000089
:020000040000fa
:0400ec008605000085
:020000040000fa
:0400f0008605000081
:020000040000fa
:0400f400860500007d
:020000040000fa
:0400f8008605000079
:020000040000fa
:0400fc008605000075
:020000040000fa
:040100008605000070
:020000040000fa
:04010400860500006c
:020000040000fa
:040108008605000068
:020000040000fa
:04010c008605000064
:020000040000fa
:040110008605000060
:020000040000fa
:04011400860500005c
:020000040000fa
:040118008605000058
:020000040000fa
:04011c008605000054
:020000040000fa
:040120008605000050
:020000040000fa
:04012400860500004c
:020000040000fa
:040128008605000048
:020000040000fa
:04012c008605000044
:020000040000fa
:040130008605000040
:020000040000fa
:04013400860500003c
:020000040000fa
:040138008605000038
:020000040000fa
:04013c008605000034
:020000040000fa
:040140008605000030
:020000040000fa
:04014400860500002c
:020000040000fa
:040148008605000028
:020000040000fa
:040208008605000067
:020000040000fa
:04020c0004050000e5
:020000040000fa
:04021000460500009f
:020000040000fa
:0402140024050000bd
:020000040000fa
:040218006605000077
:020000040000fa
:04021c008605000053
:020000040000fa
:04022000860500004f
:020000040000fa
:04022400860500004b
:020000040000fa
:040228008605000047
:020000040000fa
:04022c008605000043
:020000040000fa
:04023000860500003f
:020000040000fa
:04023400cc020000f8
:020000040000fa
:040238008605000037
:020000040000fa
:04023c008605000033
:020000040000fa
:04024000860500002f
:020000040000fa
:04024400860500002b
:020000040000fa
:040248008605000027
:020000040000fa
:04024c008605000023
:020000040000fa
:04025000860500001f
:020000040000fa
:04025400860500001b
:020000040000fa
:040258008605000017
:020000040000fa
:04025c008605000013
:020000040000fa
:04026000860500000f
:020000040000fa
:04026400860500000b
:020000040000fa
:040268008605000007
:020000040000fa
:04026c008605000003
:020000040000fa
:0402700086050000ff
:020000040000fa
:0402740086050000fb
:020000040000fa
:0402780086050000f7
:020000040000fa
:04027c0086050000f3
:020000040000fa
:0402800086050000ef
:020000040000fa
:0402840086050000eb
:020000040000fa
:0402880086050000e7
:020000040000fa
:04028c0086050000e3
:020000040000fa
:0402900086050000df
:020000040000fa
:0402940086050000db
:020000040000fa
:0402980086050000d7
:020000040000fa
:04029c0086050000d3
:020000040000fa
:0402a00086050000cf
:020000040000fa
:0402a40086050000cb
:020000040000fa
:0402a80086050000c7
:020000040000fa
:0402ac0086050000c3
:020000040000fa
:0402b00086050000bf
:020000040000fa
:0402b40086050000bb
:020000040000fa
:0402b80086050000b7
:020000040000fa
:0402bc0086050000b3
:020000040000fa
:0402c00086050000af
:020000040000fa
:0402c40086050000ab
:020000040000fa
:0402c80086050000a7
:020000040000fa
:0402cc0086050000a3
:020000040000fa
:0402d000860500009f
:020000040000fa
:0402d400860500009b
:020000040000fa
:0402d8008605000097
:020000040000fa
:0402dc008605000093
:020000040000fa
:0402e000860500008f
:020000040000fa
:0402e400860500008b
:020000040000fa
:0402e8008605000087
:020000040000fa
:0402ec008605000083
:020000040000fa
:0402f000860500007f
:020000040000fa
:0402f400860500007b
:020000040000fa
:0402f8008605000077
:020000040000fa
:0402fc008605000073
:020000040000fa
:04030000860500006e
:020000040000fa
:04030400860500006a
:020000040000fa
:040308008605000066
:020000040000fa
:04030c008605000062
:020000040000fa
:04031000860500005e
:020000040000fa
:04031400860500005a
:020000040000fa
:040318008605000056
:020000040000fa
:04031c008605000052
:020000040000fa
:04032000860500004e
:020000040000fa
:04032400860500004a
:020000040000fa
:040328008605000046
:020000040000fa
:04032c008605000042
:020000040000fa
:04033000860500003e
:020000040000fa
:04033400860500003a
:020000040000fa
:040338008605000036
:020000040000fa
:04033c008605000032
:020000040000fa
:04034000860500002e
:020000040000fa
:04034400860500002a
:020000040000fa
:040348008605000026
:020000040000fa
:10040000af8a20000e7f22000e018800000000004d
:10041000000020000000e000020032000001200087
:100420002002880014000700ce0107000000e00051
:1004300003003a0000d52000010020000200370030
:100440000000200001002000810f70000100320038
:1004500014000700000020000000e000020032004d
:100460000000020000000000b80e020000000000c2
:100470000040da000000fe004440a9000000200017
:100480000000e0000300320000002000a00188000e
:100490004440a800000006008a1f78008b1f7800e7
:1004a0000000060091018800800478000000eb0045
:1004b0001a003700e284440032a0b4009905ba0063
:1004c000e284440032a0b4009906ba00e2844400f9
:1004d00032a0b4000006eb00476fde00fd07b2005b
:1004e000636ce10003003a00ebff07000000eb0043
:1004f0000a003700606ce10004003a00005deb0088
:100500008b05e900fdff3e00040037006168e10053
:10051000010032000086eb000b00070019c7ba008b
:100520001905ba000e04e00003003a000a00e000da
:10053000e0ff3a0000000600fe07b2009e018800be
:100540008a047800f5ff3700395dba008b05e900b1
:100550000c003200295dba008b05e900080032006a
:100560000c00e00003003a00e284440032a0b40032
:10057000f5ff370019ddba008b05e900faff3a00f4
:100580008904e800e184440032a0b40000000600c1
:1005900000000000000000003600f800809fbe0050
:1005a000829fbe00849fbe00869fbe00889fbe00c3
:1005b0000000fa00001880008000eb00ed01070049
:1005c000c2ee2a00b3f323003f0207000001be0081
:1005d00000002800b13b24006301070001f0a100e6
:1005e000c0418800d1418800101880008000eb00d5
:1005f000e0010700b29c2a0073d9230032020700f1
:100600000001be00103e28007121240056010700a1
:1006100001f0a100804188009141880020188000ed
:100620008000eb00d3010700d220230083d42300f5
:10063000250207000001be0000002000811c2400ec
:1006400049010700a0418800b1418800c0418000f5
:10065000d1418000d2cc2c00c3dc23001a02070059
:100660006266260063ee23001702070090438800ad
:10067000a143880094438000a5438000804180000e
:10068000914180000001be000400be003601070059
:100690008040880091408800844080009540800020
:1006a000a0408000b14080000001be000400be00f8
:1006b0002d010700e0408800f1408800c440800020
:1006c000d540800080408000914080000001be0045
:1006d0000400be0025010700c0408800d14088000a
:1006e0008040800091408000a0408800b140880098
:1006f000b4428000c542800080408000914080006c
:100700000001be000400be00ef0107000004be00af
:10071000f442800005438000e0408000f14080000a
:100720000001be000400be00e70107000001be009a
:100730000800be000d0107000004be00d442800086
:10074000e5428000c0408000d14080000001be0032
:100750000400be00dc0107000001be000800be006e
:1007600002010700e0418800f1418800e04180007b
:10077000f141800018c0b30002002000a34f240004
:10078000590107000000e00001003d000044eb00bb
:100790000804e0000500320000002000a14f240002
:1007a000e0418800f141880012003700e0418000fc
:1007b000f141800018c0b3006011b8004801070083
:1007c0000000e000010034000044eb000804e000f9
:1007d000040032006000b800e0418800f141880068
:1007e00004003700e0418000f1418000e0418800d2
:1007f000f1418800e0418000f14180003c010700a8
:1008000000007800000c8800000c8000300c88008c
:10081000404280000000e800404288004828ef0085
:1008200040428000f40f500061003a004828ef0079
:100830007443800085438000c0418000d141800026
:100840000001be000400be00c70007000040880091
:100850001140880004408000154080002040800046
:10086000314080000001be000400be00be00070051
:1008700060408800714088004440800055408000fe
:1008800000408000114080000001be000400be0056
:10089000b6000700404088005140880000408000ba
:1008a0001140800020408800314088005442800080
:1008b0006542800000408000114080000001be00c1
:1008c0000400be00800107000004be0094428000c6
:1008d000a542800060408000714080000001be00a1
:1008e0000400be00780107000001be000800be0041
:1008f0009e0007000004be00744280008542800014
:1009000040408000514080000001be000400be0055
:100910006d0107000001be000800be009300070043
:10092000204288003142880020428000314280000d
:1009300018c0b3000200200023222400ea000700b0
:100940000000e00001003d000044eb000804e0006e
:1009500005003200000020002122240020428800ef
:10096000314288001200370020428000314280006e
:1009700018c0b3006011b800d90007000000e00003
:10098000010034000044eb000804e00004003200e1
:100990006000b8002042880031428800040037001f
:1009a000204280003142800020428800314288008d
:1009b000e04380000000e00002003200e0438000dd
:1009c00000000100508a2000104078008040e800bc
:1009d000508a200001487800408a200011c0b300ee
:1009e000014878008460a9000080fa004f04be002e
:1009f0004f03be004f02be004f01be004f00be00bd
:100a00003600f900004006003600f800809fbe0066
:100a1000829fbe00849fbe00869fbe000000fa0039
:100a20008020a9000000eb00bd0407000080fa0050
:100a30004f03be004f02be004f01be004f00be007c
:100a40003600f900004006003600f800809fbe0026
:100a5000829fbe00849fbe00869fbe000000fa00f9
:100a6000b40407008040a90010002000ac04070077
:100a70000080fa004f03be004f02be004f01be00cf
:100a80004f00be003600f900004006003600f800b6
:100a9000809fbe00829fbe00849fbe00869fbe00d6
:100aa0000000fa008060a900200020009c040700dc
:100ab0000080fa004f03be004f02be004f01be008f
:100ac0004f00be003600f900004006003600f80076
:100ad000809fbe00829fbe00849fbe00869fbe0096
:100ae0000000fa008080a900300020008c0407007c
:100af0000080fa004f03be004f02be004f01be004f
:100b00004f00be003600f900004006000040da0049
:100b10000000fe000800fa00100798002107980066
:100b200032079800be009000010f780007003700e0
:100b30002e00900010407800ae0090008100e80088
:100b400021079800770107001e0fe9001e007800ba
:100b50000000e000f6ff3a003e0090000080fa003e
:100b6000000006000000050003f0a200889fbe0000
:100b70008a9fbe008c1f7800bb000700c2003300b4
:100b80006450e1004f0032006420e1005200320066
:100b900003826c0007003b000905d0000306d0006b
:100ba000820f54000c065d00020039000200320082
:100bb00089017800030678008582550004003d0015
:100bc0000003fd008103fd008502ea008b854200e1
:100bd000840f720002003b0060001000e0801800eb
:100be0006011b8000005eb007a28e1000a00390026
:100bf00006007800c75ddd00f707b200878075004a
:100c00002d003700828171000a01780061056000c3
:100c10008180d1000080d3008502e900f9ff3b000c
:100c2000060440008784480002003b006004140072
:100c3000e0841c000988a300070032008a8171004b
:100c400082817100610164008904d1000884d300ad
:100c50008b05e800170037000978a30013003a005d
:100c60000b00e000130034008b05e9000804440089
:100c700089844c000a4474000978a3000d003a00ee
:100c80000b00e000070034008b05e9000804440075
:100c900089844c0001003a000b0020000978a30071
:100ca000f7ff32000001eb00020037008281710083
:100cb0000a017800310007000cf0a70001f0a00045
:100cc0007a0037006420e10002003a00838f6c0054
:100cd0007a0033000801be000200be007300370036
:100ce00014002000ac003700f4ff2f00aa003700ea
:100cf0000001be00470007000470a70003f0a10038
:100d00006509b100160032000d0035006828e100c9
:100d100006003500f0ff2f00f1ff27000300e00080
:100d200013003b0001002800000005000000400007
:100d3000818048008502e900fcff3a000800370086
:100d4000f88f420002003c008000eb00000005002c
:100d50008100d1000080d3008502e800fcff3a004a
:100d60000300e00002003b0060001000e08018007b
:100d7000000006006011b800a200370081002000ca
:100d8000618055000b003d000b00200061fe2f002c
:100d90000100e1001d0034008281710061016400e6
:100da0008904d1000884d3000000e800faff3a006b
:100db0007100200061006400030070000200600008
:100dc0000900320061044400e0844c000988a50059
:100dd000050032008b05e8006808e10002003a00d7
:100de0008904d1000884d300f20f20000258e100ea
:100df00005003d00c75ddd00f907b2008980750080
:100e000008007800000006000bf827008b0078002f
:100e100000000500c70ade00f107b200f50fb200be
:100e200008003200e1cf4200020032000170a00051
:100e300024000500810f7000010032000408050045
:100e400044000500810f700002003a001400050004
:100e50008502e9000000400081c04800fcff3b0023
:100e60000170a000240005000004be00e9ff070097
:100e70000003be000405be000200be00e5ff07003f
:100e8000844f7500000006000200be006450e100bf
:100e9000050036006420e100020036000968a30066
:100ea00001003a000800be000160a0004f06780073
:100eb0004f05be004f04be0000000600f0ff2f00eb
:100ec000f1ff2700f9ff3700889fbe008a9fbe0010
:100ed0008c1f7800e4ff0700ebff330003866c00f3
:100ee0006450e100240032006420e1002700320059
:100ef0006150e100220032006120e1002100320057
:100f00008b854200eb07b1000134b800003ab8000d
:100f10000804420089844a00013ab8000030b80051
:100f20008880400009014a000400330000004000ae
:100f300081804800020149008b05e900c909dd00f4
:100f4000830170000100320013002000c814de008d
:100f50004814dd004709de001200b200c808de00b8
:100f60000884700085ff070001f0a1000cf0a700c5
:100f700001f0a000cdff37006120e100cfff32007b
:100f80000801be000200be00f7ff37006150e1001b
:100f9000fcff3a00c9ff3700889fbe008a9fbe0051
:100fa000841f7800b0ff07004f0078001100330065
:100fb000f0ff2f00838f6c0006003b0004056500e6
:100fc0000a00a7000800370009f0a6001000200062
:100fd00008003700820f5400838f5c000300390043
:100fe0001000200001003e000000200009f0a700d2
:100ff0000000ea004f05be004f04be000000e00004
:1010000000000600889fbe008a9fbe00008270001c
:101010000402710004827100260032000004be0048
:101020000200be006011b8006b092000950220008c
:101030000182cf000a0039000541b1000082cf00d3
:10104000070039000541b1000982cf0004003900d2
:101050000541b1000882cf00010039000541b1000f
:1010600005425200120032000a003b0082817100ea
:10107000610164008100d1000080d3008984d30025
:101080000884d3008b05e8000442e800f7ff3a002b
:10109000070037000804440089844c000000480021
:1010a000818048008b05e9000442e900f9ff3a001d
:1010b00032ff07004f05be004f04be0000000600cf
:020000040000fa
:1010c0000000fa0080002000001188002222ef00ba
:1010d000e00320004011880021e2a8002342a8007c
:1010e0000080fa00000006000000fa000000000086
:1010f00010118000610060000000e000fcff320081
:1011000010118000620060000000e0000100320069
:101110002222a90030118000004078000080fa00ef
:10112000000006000200fa00004f780000000000f6
:101130001111800000202000008060000000e0000d
:10114000fbff3a001e80fb00201188000080fa009f
:10115000000006000000fa00101180000040780036
:10116000614060000080fb0000f0a7000000ea0082
:101170000000ea004f00de00004078000080fa0026
:10118000000006000000fa0011118000001020008d
:10119000008060000000e0000700320011118000b4
:1011a00000402000008060000000e00002003200eb
:1011b00010002000010037000000eb000040780024
:1011c0000080fa00000006000000fa001011800004
:1011d0004800de00614060000080fb0000f0a700d6
:1011e0000000ea000000ea004f00de000040780046
:1011f0000080fa00000006000000fa0010118000d4
:101200000080fa00000006000000fa00d1ff07008d
:101210000080fa00000006000000fa00d9ff070075
:101220000080fa00000006000000fa00c9ff070075
:101230000080fa00000006000000fa00e2ff07004c
:101240000080fa00000006000000fa000021ef0014
:10125000b0d4210010088800000028002008880071
:10126000e04380000000e00002003a00c097200048
:10127000240007008460a9009460a800408a200030
:101280008040eb00014878000080fa000000060072
:101290000200fa00000f78009e0078001108880014
:1012a000408a20008040eb00014878000080fa006e
:1012b000000006000000fa00100880000080fa001c
:1012c000000006000200fa00000f78009e0078007f
:1012d00001088800408a20008040eb000148780027
:1012e0000080fa00000006000000fa0000088000fc
:1012f0000080fa00000006000000fa000080fa00fa
:10130000000006000200fa00000f78009460a900b7
:101310009e007800e14388009460a8000080fa00f5
:10132000000006000000fa00408a20008040eb0028
:10133000014878009460a80005e1a8000080fa0048
:10134000000006000000fa0005e1a9009460a90071
:101350000080fa00000006000200fa00408a200027
:10136000104f78001e4078000004e00003003200b7
:10137000408a20008040eb00014878001e40780041
:101380000080fa00000006000000fa00508a2000e9
:10139000104078000080fb000080fa00000006008a
:1013a0000000fa00508a20008040eb0001487800dd
:1013b0000080fa00000006000000fa000621ef009d
:1013c000309c200060088800000028008008880009
:1013d000608a20008040eb00014878000080fa001d
:1013e000000006000000fa00210480000008200030
:1013f000008060000000e00009003200708a2000d8
:10140000104078008040e800708a20000148780091
:10141000608a200011c0b3000148780084e0a90070
:101420000080fa00000006000200fa00000f7800b9
:101430009e00780061088800608a20008040eb00f0
:10144000014878000080fa00000006000000fa0061
:10145000600880000080fa00000006000200fa0028
:10146000000f78009e00780031088800608a200014
:101470008040eb00014878000080fa000000060080
:101480000000fa00300880000080fa00000006002a
:101490000000fa00608a20008040eb0001487800dc
:1014a00011e1a8000080fa00000006000000fa0028
:1014b00011e1a9000080fa00000006000200fa0015
:1014c000608a2000104f78001e4078000004e00081
:1014d00003003200608a20008040eb000148780061
:1014e0001e4078000080fa00000006000000fa00ac
:1014f000708a2000104078000080fb000080fa0015
:10150000000006000000fa00708a20008040eb0016
:10151000014878000080fa00000006000000fa0090
:101520000a21ef00309c200070088800000028008d
:1015300090088800808a20008040eb0001487800f5
:101540000080fa00000006000000fa00210480007c
:1015500000102000008060000000e0000900320060
:10156000908a2000104078008040e800908a200097
:1015700001487800808a200011c0b300014878003b
:101580008500a9000080fa00000006000200fa00b1
:10159000000f78009e00780071088800808a200083
:1015a0008040eb00014878000080fa00000006004f
:1015b0000000fa00700880000080fa0000000600b9
:1015c0000200fa00000f78009e00780051088800a1
:1015d000808a20008040eb00014878000080fa00fb
:1015e000000006000000fa00500880000080fa00a9
:1015f000000006000000fa00808a20008040eb0016
:101600000148780013e1a8000080fa0000000600fd
:101610000000fa0013e1a9000080fa0000000600b3
:101620000200fa00808a2000104f78001e407800e7
:101630000004e00003003200808a20008040eb00bc
:10164000014878001e4078000080fa000000060083
:101650000000fa00908a2000104078000080fb0013
:101660000080fa00000006000000fa00908a2000c6
:101670008040eb00014878000080fa00000006007e
:101680000000fa00400e280000198800c040200029
:101690001019880000f02900201988002823ef0085
:1016a0007000200080198800101980004200de00c0
:1016b0006f40600082e8b7000080fa00000006007a
:1016c0000000fa002023a8000080fa0000000600b5
:1016d0000000fa002023a9000080fa0000000600a4
:1016e0000600fa002007980000302000100798003c
:1016f0000000eb00000f78000b0037001e007800a0
:1017000000004000ae009000008040009e0090006d
:1017100091007800010878001e0090000080e80029
:10172000100798001e0fe80082c8bf000080fb0071
:101730009e0f5000f1ff3d001e0078000080fa006f
:10174000000006000000fa00001880000080fa0087
:10175000000006000000fa00001980000040780038
:10176000614060000080fb0000f0a7000000ea007c
:101770000000ea004f00de00004078000080fa0020
:10178000000006000200fa00000f78009e007800ba
:10179000411988000080fa00000006000200fa00eb
:1017a000000f78001e007800f6ff0700c4ff070056
:1017b000c7ff070000000000e6ff07000004a200ca
:1017c0000004e000fcff3a00deff07000080fa00a2
:1017d000000006000000fa0085a0a9000080fa00c1
:1017e000000006000000fa008621ef008821ef00cb
:1017f000e0002000500c8800500c80000040780071
:10180000674060000080fb00004488000080fa0010
:10181000000006000000fa000080fa000000060048
:101820000000fa0021048000000420000080600015
:101830000000e00002003200f6ff070084c0a900ab
:101840000080fa00000006000000fa00004480005a
:1018500000407800674060000080fb006700600087
:10186000520c800081ff2f00810061000100700098
:10187000500c88000080fa00000006000000fa000a
:10188000510c800080ff2f0000806000500c880009
:101890000080fa00000006000200fa00000f780045
:1018a0009e007800310c88000080fa0000000600dd
:1018b0000200fa00000f78009e007800410c8800ba
:1018c0000080fa00000006000000fa0020048000fa
:1018d0004600de00614060000080fb0000f0a700d1
:1018e0000000ea000000ea004f00de00004078003f
:1018f0000080fa00000006000400fa0010079800bb
:101900001e0090000000e0000a003a00500c800029
:101910004400de00614060000080fb0000f0a70092
:101920000000ea000000ea004f00de00004f7800ef
:1019300001003700000000001e4078000080fa001f
:10194000000006000000fa008021ef008221ef0075
:1019500060002000200c8800200c800000407800ef
:10196000674060000080fb00d04388000080fa00e0
:10197000000006000000fa000080fa0000000600e7
:101980000000fa0020048000640060000000e00015
:1019900002003200f7ff07008440a9000080fa002f
:1019a000000006000000fa00d043800000407800ec
:1019b000674060000080fb0067006000220c800030
:1019c00081ff2f008100610001007000200c880061
:1019d0000080fa00000006000000fa00210c8000e0
:1019e00080ff2f0000806000200c88000080fa003b
:1019f000000006000200fa00000f78009e00780048
:101a0000010c88000080fa00000006000200fa00c5
:101a1000000f78009e007800110c88000080fa000a
:101a2000000006000000fa00200480004200de00f2
:101a3000614060000080fb0000f0a7000000ea00a9
:101a40000000ea004f00de00004078000080fa004d
:101a5000000006000400fa00100798001e00900025
:101a60000000e0000a003a00200c80004400de0084
:101a7000614060000080fb0000f0a7000000ea0069
:101a80000000ea004f00de00004f78000100370040
:101a9000000000001e4078000080fa0000000600f0
:020000040000fa
:101aa0007a0800000200000000000000a408000006
:101ab00002000000000000007c080000020000009e
:101ac00000000000a6080000020000000000000066
:101ad0008408000020000000000000007e080000d4
:101ae0000200000002000000ffff0000800800006c
:101af0000200000000000000a80800000200000032
:101b0000000000004a080000300000000200000051
:101b10000000400040067f00bf3b0a00d7233d0085
:101b200000008000420000000e42cd00cc4c3d0081
:101b30000000c00041000000f040cd00cc4c3d0052
:101b400000008c0042000000084100000008410035
:101b5000000800004a0000000000000082080000a9
:0c1b600002000000000000000000000077
:020000040000fa
:101b6c000000fa00c422ef00cc22ef00700120002c
:101b7c0000168800f03f2700401688006820ef0010
:101b8c006a20ef00c622ef00ce22ef0000202000da
:101b9c0060198800113a8000f00b20000081600071
:101bac006004200071052000237420008049780017
:101bbc0081497800824978005136800000fe2f0060
:101bcc00008060002001b300503688007136800020
:101bdc00f00f2e00808060000030200001007000ab
:101bec007036880051368000f00f2e008080600027
:101bfc00003021000100700050368800103a80003f
:101c0c00000178000260a000600420007105200033
:101c1c00237420008049780081497800824978003b
:101c2c000080fa00000006000000fa00ccff07005c
:101c3c0021000700430007001efd07008dfe070072
:101c4c0033fe07003cff0700e3fe0700d7fd07004b
:101c5c007afd07000080fa00000006000400fa007c
:101c6c001007980010002000000f78000cfe0700f1
:101c7c0064fe07000621ef0002fe07000900370092
:101c8c009e00900030088000808f500005003e00c0
:101c9c000a21ef0054fe0700e8fe07000000eb00ed
:101cac00000f78001e007800e10f5000f4ff3200a6
:101cbc000080fa00000006000000fa00001023006b
:101ccc00203a88004827ef007027ef007227ef00ba
:101cdc007427ef002200200080072000a1092000bb
:101cec00337420008049780081497800824978005b
:101cfc000001eb006004200071052000237420001b
:101d0c008049780081497800824978000080fa0087
:101d1c00000006000200fa00000f78009e00780018
:101d2c00f1438800ffff37000000fa0040882000d4
:101d3c0080077800c0892000000188000080fa002c
:101d4c00000006000000fa0021058000f0ff2800ca
:101d5c000080600000c0a000200588000080fa0010
:101d6c00000006000000fa00afff0700404d200005
:081d7c00baff0700ffff37006a
:020000040000fa
:020000040001f9
:0457f8009cfa000017
:020000040000fa
:020000040001f9
:0457fc007f3d0000ed
:00000001FF
